:020000040801F1
:100000000006002011130108492F08084D2F080889
:10001000B92F08084D2F0808852F08081313010869
:1000200013130108131301081313010879460B0871
:100030001313010813130108131301081313010804
:1000400013130108131301081313010813130108F4
:100050001313010813130108F9510B0825520B085B
:1000600051520B087D520B08A9520B08E5F60A08FD
:100070000DF70A0839F70A0865F70A0891F70A0820
:10008000B9F70A08E5F70A0895F50A0813130108F5
:10009000131301081313010813130108D5520B0899
:1000A00079080B081313010813130108131301082F
:1000B0001313010813130108131301081D000B0883
:1000C00031000B0855000B0869000B0813130108D9
:1000D00013130108B90F0B08CD0F0B08E10F0B0824
:1000E0003D530B08131301081313010813130108E0
:1000F00013130108131301081313010811F80A0858
:10010000131301081313010831590B0813130108C5
:10011000F50F0B0809100B0813130108131301083E
:100120003DF80A0865F80A0891F80A08BDF80A08B7
:10013000E9F80A081313010813130108131301083F
:10014000131301081313010813130108BD4D0B0805
:1001500011F90A083DF90A0869F90A081D100B0887
:1001600013130108131301081313010813130108D3
:1001700013130108131301081313010813130108C3
:1001800013130108131301081313010813130108B3
:1001900013130108131301081313010813130108A3
:1001A0001313010813130108131301081313010893
:1001B0001313010813130108131301081313010883
:1001C0001313010813130108131301081313010873
:1001D0001313010813130108131301081313010863
:1001E0003555010869190208F5620308351D05082F
:1001F000592005083D440508919E050855A60508A7
:10020000A5A905082126060895C306082907070899
:1002100041120708B52D080821340808C1FE080856
:1002200081DE090871420A08C5490A08B9690A0845
:10023000D5710A085D9C0A0800000000000000005B
:10024000D0400B1CD1409C46203AD3401843524228
:100250006346934018437047D0400B1C1141203A2D
:1002600003D49C46134118436346524293401843BB
:10027000704700BF9140031C90409C46203A934039
:10028000194352426346D3401943704781F00041FD
:1002900002E000BF83F0004330B54FEA41044FEA6B
:1002A000430594EA050F08BF90EA020F1FBF54EA06
:1002B000000C55EA020C7FEA645C7FEA655C00F0A2
:1002C000E2804FEA5454D4EB5555B8BF6D420CDD73
:1002D0002C4480EA020281EA030382EA000083EAF6
:1002E000010180EA020281EA0303362D88BF30BD96
:1002F00011F0004F4FEA01314FF4801C4CEA1131EC
:1003000002D0404261EB410113F0004F4FEA03334A
:100310004CEA133302D0524263EB430394EA050FD5
:1003200000F0A780A4F10104D5F1200E0DDB02FA44
:100330000EFC22FA05F2801841F1000103FA0EF2D8
:10034000801843FA05F359410EE0A5F120050EF19E
:10035000200E012A03FA0EFC28BF4CF0020C43FACF
:1003600005F3C01851EBE37101F0004507D54FF0DC
:10037000000EDCF1000C7EEB00006EEB0101B1F52C
:10038000801F1BD3B1F5001F0CD349085FEA300072
:100390004FEA3C0C04F101044FEA445212F5800F7D
:1003A00080F09A80BCF1004F08BF5FEA500C50F11A
:1003B000000041EB045141EA050130BD5FEA4C0CFD
:1003C000404141EB010111F4801FA4F10104E9D186
:1003D00091F0000F04BF01460020B1FA81F308BF7D
:1003E0002033A3F10B03B3F120020CDA0C3208DD49
:1003F00002F1140CC2F10C0201FA0CF021FA02F124
:100400000CE002F11402D8BFC2F1200C01FA02F193
:1004100020FA0CFCDCBF41EA0C019040E41AA2BFB8
:1004200001EB0451294330BD6FEA04041F3C1CDA80
:100430000C340EDC04F11404C4F1200220FA04F0A0
:1004400001FA02F340EA030021FA04F345EA03014A
:1004500030BDC4F10C04C4F1200220FA02F001FA0C
:1004600004F340EA0300294630BD21FA04F029468E
:1004700030BD94F0000F83F4801306BF81F4801127
:100480000134013D4EE77FEA645C18BF7FEA655C9A
:1004900029D094EA050F08BF90EA020F05D054EA6C
:1004A000000C04BF1946104630BD91EA030F1EBF71
:1004B0000021002030BD5FEA545C05D14000494175
:1004C00028BF41F0004130BD14F580043CBF01F568
:1004D000801130BD01F0004545F0FE4141F470014E
:1004E0004FF0000030BD7FEA645C1ABF1946104629
:1004F0007FEA655C1CBF0B46024650EA013406BF2A
:1005000052EA033591EA030F41F4002130BD00BFE8
:1005100090F0000F04BF0021704730B54FF48064A5
:1005200004F132044FF000054FF0000150E700BF26
:1005300090F0000F04BF0021704730B54FF4806485
:1005400004F1320410F0004548BF40424FF0000172
:100550003EE700BF42004FEAE2014FEA31014FEAB5
:1005600002701FBF12F07F4393F07F4F81F0605104
:10057000704792F0000F14BF93F07F4F704730B573
:100580004FF4607401F0004521F0004120E700BF06
:1005900050EA010208BF704730B54FF000050AE08D
:1005A00050EA010208BF704730B511F0004502D58E
:1005B000404261EB41014FF4806404F132045FEA90
:1005C000915C3FF4DCAE4FF003025FEADC0C18BF35
:1005D00003325FEADC0C18BF033202EBDC02C2F12B
:1005E000200300FA03FC20FA02F001FA03FE40EABD
:1005F0000E0021FA02F11444C1E600BF70B54FF0BD
:10060000FF0C4CF4E06C1CEA11541DBF1CEA13559E
:1006100094EA0C0F95EA0C0F00F0DEF82C4481EA06
:10062000030621EA4C5123EA4C5350EA013518BF26
:1006300052EA033541F4801143F4801338D0A0FB13
:1006400002CE4FF00005E1FB02E506F00042E0FBC0
:1006500003E54FF00006E1FB03569CF0000F18BFC6
:100660004EF0010EA4F1FF04B6F5007F64F540746E
:1006700004D25FEA4E0E6D4146EB060642EAC62101
:1006800041EA55514FEAC52040EA5E504FEACE2E6E
:10069000B4F1FD0C88BFBCF5E06F1ED8BEF1004F71
:1006A00008BF5FEA500E50F1000041EB045170BDED
:1006B00006F0004646EA010140EA020081EA030131
:1006C000B4EB5C04C2BFD4EB0C0541EA045170BD2D
:1006D00041F480114FF0000E013C00F3AB8014F1A7
:1006E000360FDEBF002001F0004170BDC4F10004F0
:1006F000203C35DA0C341BDC04F11404C4F1200571
:1007000000FA05F320FA04F001FA05F240EA0200CB
:1007100001F0004221F0004110EBD37021FA04F601
:1007200042EB06015EEA430E08BF20EAD37070BDBB
:10073000C4F10C04C4F1200500FA04F320FA05F01A
:1007400001FA04F240EA020001F0004110EBD3701C
:1007500041F100015EEA430E08BF20EAD37070BD8C
:10076000C4F1200500FA05F24EEA020E20FA04F365
:1007700001FA05F243EA020321FA04F001F0004114
:1007800021FA04F220EA020000EBD3705EEA430E85
:1007900008BF20EAD37070BD94F0000F0FD101F0B4
:1007A0000046400041EB010111F4801F08BF013CED
:1007B000F7D041EA060195F0000F18BF704703F02B
:1007C0000046520043EB030313F4801F08BF013DB2
:1007D000F7D043EA0603704794EA0C0F0CEA13556E
:1007E00018BF95EA0C0F0CD050EA410618BF52EA28
:1007F0004306D1D181EA030101F000414FF000002E
:1008000070BD50EA410606BF1046194652EA43063B
:1008100019D094EA0C0F02D150EA013613D195EAAF
:100820000C0F05D152EA03361CBF104619460AD1F7
:1008300081EA030101F0004141F0FE4141F4700101
:100840004FF0000070BD41F0FE4141F4780170BDF1
:1008500070B54FF0FF0C4CF4E06C1CEA11541DBF56
:100860001CEA135594EA0C0F95EA0C0F00F0A7F858
:10087000A4EB050481EA030E52EA03354FEA013185
:1008800000F088804FEA03334FF0805545EA131398
:1008900043EA12634FEA022245EA111545EA106560
:1008A0004FEA00260EF000419D4208BF964244F1F7
:1008B000FD0404F5407402D25B084FEA3202B61A16
:1008C00065EB03055B084FEA32024FF480104FF4EA
:1008D000002CB6EB020E75EB030E22BFB61A75465E
:1008E00040EA0C005B084FEA3202B6EB020E75EBF1
:1008F000030E22BFB61A754640EA5C005B084FEA59
:100900003202B6EB020E75EB030E22BFB61A754625
:1009100040EA9C005B084FEA3202B6EB020E75EB30
:10092000030E22BFB61A754640EADC0055EA060EF1
:1009300018D04FEA051545EA16754FEA06164FEA34
:10094000C30343EA52734FEAC2025FEA1C1CC0D1E0
:1009500011F4801F0BD141EA00014FF000004FF06D
:10096000004CB6E711F4801F04BF01430020B4F12E
:10097000FD0C88BFBCF5E06F3FF6AFAEB5EB030CE6
:1009800004BFB6EB020C5FEA500C50F1000041EBE3
:10099000045170BD0EF0004E4EEA113114EB5C04B0
:1009A000C2BFD4EB0C0541EA045170BD41F4801183
:1009B0004FF0000E013C90E645EA060E8DE60CEA8B
:1009C000135594EA0C0F08BF95EA0C0F3FF43BAFA8
:1009D00094EA0C0F0AD150EA01347FF434AF95EA5F
:1009E0000C0F7FF425AF104619462CE795EA0C0F43
:1009F00006D152EA03353FF4FDAE1046194622E710
:100A000050EA410618BF52EA43067FF4C5AE50EAE9
:100A100041047FF40DAF52EA43057FF4EBAE12E7D9
:100A20004FF0FF3C06E000BF4FF0010C02E000BFBA
:100A30004FF0010C4DF804CD4FEA410C7FEA6C5C9D
:100A40004FEA430C18BF7FEA6C5C1BD001B050EA40
:100A5000410C0CBF52EA430C91EA030F02BF90EA2B
:100A6000020F0020704710F1000F91EA030F58BFEA
:100A7000994208BF90422CBFD8176FEAE37040F04C
:100A8000010070474FEA410C7FEA6C5C02D150EAEA
:100A9000013C07D14FEA430C7FEA6C5CD6D152EAA5
:100AA000033CD3D05DF8040B704700BF844610466A
:100AB00062468C461946634600E000BF01B5FFF769
:100AC000B7FF002848BF10F1000F01BD4DF808ED39
:100AD000FFF7F4FF0CBF012000205DF808FB00BF0A
:100AE0004DF808EDFFF7EAFF34BF012000205DF864
:100AF00008FB00BF4DF808EDFFF7E0FF94BF0120B1
:100B000000205DF808FB00BF4DF808EDFFF7CEFFB1
:100B100094BF012000205DF808FB00BF4DF808EDF0
:100B2000FFF7C4FF34BF012000205DF808FB00BFC1
:100B30004FEA410C7FEA6C5C02D150EA013C0AD1D9
:100B40004FEA430C7FEA6C5C02D152EA033C02D1CB
:100B50004FF0000070474FF0010070474FEA41022C
:100B600012F5001215D211D56FF47873B3EB6252FF
:100B700012D94FEAC12343F0004343EA505311F026
:100B8000004F23FA02F018BF404270474FF00000B8
:100B9000704750EA013005D111F0004008BF6FF0F6
:100BA000004070474FF00000704700BF4A0011D26C
:100BB00012F5001211D20DD56FF47873B3EB6252B7
:100BC0000ED44FEAC12343F0004343EA505323FAC3
:100BD00002F070474FF00000704750EA013002D138
:100BE0004FF0FF3070474FF0000070474FEA41026E
:100BF000B2F1E04324BFB3F5001CDCF1FE5C0DD97B
:100C000001F0004C4FEAC0024CEA5070B2F1004FC4
:100C100040EB830008BF20F00100704711F0804FC7
:100C200021D113F13872BCBF01F00040704741F48C
:100C300080114FEA5252C2F11802C2F1200C10FA90
:100C40000CF320FA02F018BF40F001004FEAC12374
:100C50004FEAD32303FA0CFC40EA0C0023FA02F318
:100C60004FEA4303CCE77FEA625307D150EA0133EE
:100C70001EBF4FF0FE4040F44000704701F00040BE
:100C800040F0FE4040F40000704700BF80F000409C
:100C900002E000BF81F0004142001FBF5FEA410354
:100CA00092EA030F7FEA226C7FEA236C6AD04FEA54
:100CB0001262D2EB1363C1BFD21841404840414099
:100CC000B8BF5B42192B88BF704710F0004F40F44B
:100CD000000020F07F4018BF404211F0004F41F467
:100CE000000121F07F4118BF494292EA030F3FD033
:100CF000A2F1010241FA03FC10EB0C00C3F1200346
:100D000001FA03F100F0004302D5494260EB4000D4
:100D1000B0F5000F13D3B0F1807F06D340084FEA3F
:100D2000310102F10102FE2A51D2B1F1004F40EB34
:100D3000C25008BF20F0010040EA0300704749009C
:100D400040EB000010F4000FA2F10102EDD1B0FA67
:100D500080FCACF1080CB2EB0C0200FA0CF0AABF5C
:100D600000EBC25052421843BCBFD04018437047FA
:100D700092F0000F81F4000106BF80F40000013200
:100D8000013BB5E74FEA41037FEA226C18BF7FEAD7
:100D9000236C21D092EA030F04D092F0000F08BF19
:100DA0000846704790EA010F1CBF0020704712F000
:100DB0007F4F04D1400028BF40F00040704712F13F
:100DC00000723CBF00F50000704700F0004343F0A4
:100DD000FE4040F4000070477FEA226216BF0846DA
:100DE0007FEA23630146420206BF5FEA412390EA9D
:100DF000010F40F4800070474FF0000304E000BF93
:100E000010F0004348BF40425FEA000C08BF704743
:100E100043F0964301464FF000001CE050EA010207
:100E200008BF70474FF000030AE000BF50EA01021C
:100E300008BF704711F0004302D5404261EB410109
:100E40005FEA010C02BF84460146002043F0B6432E
:100E500008BFA3F18053A3F50003BCFA8CF2083A53
:100E6000A3EBC25310DB01FA02FC634400FA02FC5C
:100E7000C2F12002BCF1004F20FA02F243EB020063
:100E800008BF20F00100704702F1200201FA02FCC5
:100E9000C2F1200250EA4C0021FA02F243EB0200B8
:100EA00008BF20EADC7070477BB972B90029BEBF69
:100EB00000204FF0004106E008BF00281CBF6FF083
:100EC00000414FF0FF3000F021BAADF1080C6DE9A0
:100ED00004CE002909DB002B1ADB00F0A9F8DDF8AD
:100EE00004E0DDE9022304B07047404261EB4101B8
:100EF000002B1BDB00F09CF8DDF804E0DDE90223A9
:100F000004B0404261EB4101524263EB430370473E
:100F1000524263EB430300F08BF8DDF804E0DDE9B7
:100F2000022304B0404261EB41017047524263EB3F
:100F3000430300F07DF8DDF804E0DDE9022304B0AE
:100F4000524263EB4303704753B94AB9002908BFC3
:100F500000281CBF4FF0FF314FF0FF3000F0D6B932
:100F6000ADF1080C6DE904CE00F062F8DDF804E0A4
:100F7000DDE9022304B07047430803F05533C01A7B
:100F8000830803F0333300F03330184400EB1010C3
:100F900000F00F3000EB002000EB0040000E704727
:100FA00080EA104080EA102080EA101046F696137E
:100FB00000F00F0043FA00F000F00100704700BF9E
:100FC00007EE900AF5EEC07AF1EE10FA01D400F0C7
:100FD00009B808B580F0004000F004F8404261EB29
:100FE000410108BDD0B5FFF7B5FA00220E4B064609
:100FF0000F46FFF703FBFFF7D9FD0446FFF788FA1A
:1010000000220A4BFFF7FAFA02460B4630463946F1
:10101000FFF740F9FFF7CAFD2346002242EA00022B
:1010200010461946D0BD00BF0000F03D0000F04161
:101030002DE9F0478C460D460446089E002B51D101
:101040008A4217466DD9B2FA82FEBEF1000F0BD06C
:10105000CEF1200C01FA0EF520FA0CFC02FA0EF784
:101060004CEA050C00FA0EF44FEA174A250CBCFBBB
:10107000FAF81FFA87F90AFB18CC45EA0C4508FB79
:1010800009F3AB420AD9ED1908F1FF3280F0238150
:10109000AB4240F22081A8F102083D44ED1AA4B20F
:1010A000B5FBFAF00AFB105544EA054400FB09F9C8
:1010B000A14509D9E41900F1FF3380F00A81A14567
:1010C00040F2078102383C44A4EB090440EA08409E
:1010D0000021002E61D024FA0EF4002334607360E6
:1010E000BDE8F0878B4207D9002E54D0002186E856
:1010F00021000846BDE8F087B3FA83F1002940F0EB
:101100008E80AB4202D3824200F2FA80841A65EBF1
:1011100003050120AC46002E3FD086E81010BDE844
:10112000F08712B90127B7FBF2F7B7FA87FEBEF1D5
:10113000000F34D1EB1B3A0C1FFA87FC0121B3FBE3
:10114000F2F8250C02FB183345EA03450CFB08F3C3
:10115000AB4207D9ED1908F1FF3002D2AB4200F2E1
:10116000D1808046ED1AA3B2B5FBF2F002FB105518
:1011700043EA05440CFB00FCA44507D9E41900F13F
:10118000FF3302D2A44500F2B8801846A4EB0C0449
:1011900040EA08409DE731463046BDE8F087CEF191
:1011A000200405FA0EF307FA0EF720FA04F83A0CB9
:1011B00025FA04F448EA0308B4FBF2F14FEA1845B3
:1011C00002FB11441FFA87FC45EA044501FB0CF3BE
:1011D000AB4200FA0EF409D9ED1901F1FF3080F0AD
:1011E0008A80AB4240F2878002393D44EB1A1FFAF5
:1011F00088F5B3FBF2F002FB103345EA034500FB30
:101200000CF3AB4207D9ED1900F1FF386FD2AB42B6
:101210006DD902383D44EB1A40EA01418FE7C1F134
:10122000200722FA07F88B4005FA01F448EA030385
:1012300020FA07FE4FEA134CFD404EEA040EB5FBC0
:10124000FCF94FEA1E440CFB19551FFA83F844EAD7
:10125000054509FB08F4AC4202FA01F200FA01FA72
:1012600008D9ED1809F1FF3043D2AC4241D9A9F1B8
:1012700002091D442D1B1FFA8EFEB5FBFCF00CFB72
:1012800010554EEA054400FB08F8A04507D9E418BC
:1012900000F1FF3529D2A04527D902381C4440EA85
:1012A0000940A4EB0804A0FB02894C45C6464D4604
:1012B00015D312D056B1BAEB0E0364EB050404FA51
:1012C00007F7CB401F43CC40376074600021BDE876
:1012D000F0871846F8E69046E0E6C245EAD2B8EB59
:1012E000020E69EB03050138E4E72846D7E74046DC
:1012F00091E78146BEE7014678E702383C4445E77E
:10130000084608E7A8F102083D442BE7704700BFF4
:1013100002E000F000F8FEE772B6394880F3088872
:10132000384880F3098838484EF60851CEF200015B
:10133000086040F20000CCF200004EF63471CEF2AC
:1013400000010860BFF34F8FBFF36F8F40F20000C2
:10135000C0F2F0004EF68851CEF200010860BFF3F3
:101360004F8FBFF36F8F4FF00000E1EE100A4EF683
:101370003C71CEF200010860062080F31488BFF3B0
:101380006F8FA3F0D7F9A2F0CFFA4FF055301F4975
:101390001B4A91423CBF41F8040BFAE71C49194A29
:1013A00091423CBF41F8040BFAE71A491A4A1B4B19
:1013B0009A423EBF51F8040B42F8040BF8E70020B4
:1013C0001749184A91423CBF41F8040BFAE7A3F0D1
:1013D000B5F9A2F005FB144C144DAC4203DA54F8F5
:1013E000041B8847F9E704F095F8114C114DAC4205
:1013F00003DA54F8041B8847F9E7A3F09DB900000D
:10140000000600200022002000000108000000204B
:1014100000060020E89B0D08002200206824002020
:1014200068240020C82D0120E001010838020108CD
:1014300038020108380201082DE9F04F2DED108A1D
:10144000C1F80CD0C3689D46BDEC108ABDE8F08F92
:10145000002383F311882846A0470020A2F00AF851
:10146000FEE7A1F087FE00DFFEE7000001F0FF01CC
:10147000102A2BDB10F0070F08D010F8013B013ABF
:101480008B422DD010F0070F42B3F6D1F0B441EAF1
:10149000012141EA014122F007047FF00007002307
:1014A000F0E80256083C85EA010586EA010685FA5D
:1014B00047F5A3FA87F586FA47F6A5FA87F68EB9B7
:1014C000EED1F0BC01F0FF0102F0070232B110F8DA
:1014D000013B013A83EA010313B1F8D100207047C0
:1014E00001387047002D06BF35460338073815F020
:1014F000010F07D1013015F4807F02BF013015F4D0
:10150000C03F0130F0BC0138704700BF10F8012B1C
:1015100011F8013B012A28BF9A42F7D0D01A704730
:10152000034613F8012B002AFBD1181A0138704723
:101530000120704738B50E4B1D68EC6C67F006FC57
:1015400040B1EC6C23682046DB69984710F1FF300E
:1015500018BF0120014620461CF0EAFC45F08CF83B
:10156000EB6C93F89C10BDE8384044F0A3BA00BF80
:101570006824002070B58EB005460E46322201A9BF
:101580000B485BF0BDFC044638B99DF904303BB90B
:10159000084A3146284667F035FD20460EB070BD3A
:1015A00001AB054A3146284667F02CFDF5E700BF40
:1015B000B050002084C30B08A6C20B0808B583688E
:1015C000012B0A4601D09B060FD5094BDFED097AA6
:1015D00093ED007AB4EEE77AF1EE10FA05DA064BF5
:1015E000202167F0CFFB002008BD012008BD00BF0F
:1015F000CC4F00200000003420C30B0870B543F628
:101600001813084A0546D05803689B690E46984748
:10161000044620B9044A3146284667F0F3FC2046C8
:1016200070BD00BF70240020D0C20B0837B583689E
:10163000012B0A4601D05B0631D51A4B42F6A85160
:101640005C5842F6AC51B4F90A50595840F2145360
:101650009D420BDCB4F90E5040F2A364A54216DDA6
:10166000B1F90A509D420ADD0F4B00E00F4B009389
:101670000F4B402167F086FB002003B030BDB1F96D
:101680000E30A34205DC084B00930A4BF1E7074BF1
:10169000FAE7114603B0BDE8304067F09BBB01207C
:1016A000EBE700BF70240020A4120C08D8C30B087D
:1016B00034C30B084AC30B082DE9F041264C43F60E
:1016C00018170546E05903688EB05B6A0E469847C6
:1016D000A04608BBE05903689B6A9847E0B901241B
:1016E00020460EB0BDE8F08143F6301318F8033001
:1016F00033B11A4A3146284667F084FC0024EFE7EC
:10170000154804F0F7FA04460028E9D1144A314696
:10171000284667F077FCE3E73146284667F0B8FBD8
:1017200004460028DCD00AF01DFD044632220021C8
:1017300001A8A7F04FFA236820469F6A01AA322326
:101740000121B84704460028CED101AB054A3146F5
:10175000284667F057FCC3E770240020A9C20B0895
:10176000B6C20B08A0C20B0870B5836805460E46CA
:10177000CBB11B4B1B782BB11A4A67F043FC0024FA
:10178000204670BD42F6FC33174AD356002B0CDDC1
:10179000164870F01BFB044638B9154A31462846F6
:1017A00067F030FCECE70124EAE73146284668F0B0
:1017B00005FA314604460F4800F030FA314604403D
:1017C0002846FFF7D7FEE4B2044031462846FFF72B
:1017D000F5FE314604402846FFF710FF0440CFE7EE
:1017E00070710020E4C20B08702400202C4E0020F1
:1017F000FDC20B08CC45002083680BB167F086BFA3
:101800000120704738B5054668F080FA044630B9C3
:101810000E4A137843F001031370204638BD0121AE
:101820000B486BF0ADFA0B4806F076FF0AF09AFC15
:10183000094BC2681A602846FFF77CFE4EF0A6F8F6
:10184000064A062147F004FAE7E700BF10680020C7
:10185000C04B0020E0660020784E002060C30B08DB
:1018600038B5054668F0B0FA044698B143F6181347
:10187000094AD258094B9A4203D003F1380024F0A8
:10188000FBFA2846FFF756FE4EF080F8044A062180
:1018900047F0DEF9204638BD702400205C6400204B
:1018A00070C30B080728D4BF21304A30C0B270473C
:1018B00010B501230446416080F82C3002493FF006
:1018C0008DFE204610BD00BF04C40B0810B590F972
:1018D0000830032B044608D1462050F095FB4920E0
:1018E00050F092FB4A2050F08FFB94F90A40CCB1A3
:1018F0000321462050F0B2FA0321492050F0AEFAFD
:1019000003214A2050F0AAFA0321462050F078FA29
:101910000321492050F074FA03214A20BDE8104009
:1019200050F06EBA2146462050F098FA21464920E0
:1019300050F094FA2146E4E710B541F294111A20D0
:1019400050F07AFB6421462050F076FB4FF47A7118
:10195000492050F071FB4FF47A714A2050F06CFB33
:10196000002420460134FFF79DFFE4B2642150F0CB
:1019700063FB042CF5D16421592050F073FB6421E2
:101980008020BDE8104050F057BB000080ED080AF1
:1019900080F82C107047000010B50C4B1B68DB6CF6
:1019A00093F89C3004467BB190F90F305A4200EE18
:1019B000902A07EE903ACE20B8EEE71AF8EEE00A49
:1019C0001FF00AFB84ED090A10BD00BF6824002047
:1019D00010B59FED051ADFED050A0446D4201FF06F
:1019E000FBFA84ED0C0A10BD0000C8420000C8C21A
:1019F00010B5B7EE001A0446FFEE000ADA201FF019
:101A0000EBFA84ED0D0A10BD10B5B7EE001A0446CE
:101A1000FFEE000AE0201FF0DFFA84ED0E0A10BD91
:101A200010B5B7EE001A0446FFEE000AE6201FF0DC
:101A3000D3FA84ED0F0A10BD10B59FED051ADFED46
:101A4000050A0446EC201FF0C7FA84ED100A10BD09
:101A50000000C8420000000010B59FED051ADFED40
:101A6000050A0446F2201FF0B7FA84ED110A10BDF2
:101A70000000C8420000C8C2B0F90C30002B10DDD5
:101A800007EE903A90ED0A7AF8EEE77AB0EE471A50
:101A9000A7EEE07AFF20A7EEA01AF0EE470A1FF0AB
:101AA0009BBA704708B5492050F05AF920B14A2036
:101AB000BDE8084050F054B908BD000008B55920F1
:101AC00050F04EF920B98020BDE8084050F048B9E8
:101AD00008BD000000B52DED028B042983B0B0EEE7
:101AE000408A00F399800139042900F29580DFE8EB
:101AF00001F0032B455F7900212050F031F940B10E
:101B0000FCEEC87A2120CDED017ABDF8041050F02A
:101B100039F9462050F024F940B1FCEEC87A46204D
:101B2000CDED017ABDF8041050F02CF950F0FCFC1A
:101B300050F034FD50F0BAF850F038FD012003B0F9
:101B4000BDEC028B5DF804FB222050F009F940B196
:101B5000FCEEC87A2220CDED017ABDF8041050F0D9
:101B600011F91A2050F0FCF80028DFD0FCEEC87AFA
:101B70001A20CDED017ABDF80410D5E7232050F0EE
:101B8000EFF840B1FCEEC87A2320CDED017ABDF824
:101B9000041050F0F7F8492050F0E2F80028C5D0C2
:101BA000FCEEC87A4920CDED017ABDF80410BBE700
:101BB000242050F0D5F840B1FCEEC87A2420CDEDB9
:101BC000017ABDF8041050F0DDF84A2050F0C8F852
:101BD0000028ABD0FCEEC87A4A20CDED017ABDF8E2
:101BE0000410A1E7592050F0BBF840B1FCEEC87AD0
:101BF0005920CDED017ABDF8041050F0C3F88020D3
:101C000050F0AEF8002891D0FCEEC87A8020CDEDDF
:101C1000017ABDF8041087E7002090E72DE9F04134
:101C2000074649200D4650F09BF860B14A2050F01D
:101C300097F840B1462050F093F820B11A2050F0A8
:101C40008FF800283CD1492050F08AF804464A20F9
:101C500050F086F8844212D13846FFF72FFF044631
:101C600018B9462050F07CF804461A2050F078F855
:101C7000844209D05DB34DF089FE164A24E035B3A5
:101C80004DF084FE144A1FE0002697F87830F0B239
:101C9000984213DAFFF706FE804650F061F80136ED
:101CA00004460028F1D195B14DF070FE43460B4A31
:101CB000022146F0CDFF2046BDE8F0810124FAE77D
:101CC0002DB14DF063FE064A022146F0C1FF00240B
:101CD000F1E700BF30C50B080DC50B085BC50B084D
:101CE000E0C40B0810B514220446002190F90E0040
:101CF0001FF0A8F96422A0731E2194F90F001FF0B1
:101D0000A1F99FED071AE073DFED060A94ED050ACD
:101D100040F2E3101FF060F984ED050A10BD00BF2A
:101D20000000B4420000000070B50546462050F0A7
:101D300087FA0446492050F083FA04434A2050F0C1
:101D40007FFAA4B20443A4B2002695F87830F0B22A
:101D5000984206F1010606DAFFF7A4FD50F070FA8A
:101D60000443A4B2F1E795F90830013B072B49D8A9
:101D7000DFE803F0040E15152C333A41224B1B68A3
:101D8000586C03681B6F02222146BDE8704018475B
:101D90001D4B1B68586C036803221B6FF4E71A4B3A
:101DA0001E68706C036821461B6F0422984795F9E2
:101DB0000920706CC2EB421302EB83020368D2006D
:101DC000214692B25B68BDE8704018470E4B1B6815
:101DD000586C036805221B6FD6E70B4B1B68586CC9
:101DE000036806221B6FCFE7074B1B68586C03681C
:101DF00007221B6FC8E7044B1B68586C0368082256
:101E00001B6FC1E770BD00BF6824002073B5CCB262
:101E1000032C0D4613D82046FFF744FD2146064605
:101E200050F088FA0DF10701304650F01BFA30B936
:101E30004DF0ACFD2B46034A032146F009FF02B0EA
:101E400070BD00BFE0C30B08CBB2032B05D800EB7D
:101E5000810000238364836583667047F8B50022A0
:101E6000044651B22046FFF7EFFF0132042AF8D1B1
:101E700042F688133249CE56022E21D0032E3ED090
:101E8000012E5CD14FF07E5503232E4F84F878301D
:101E900000212046A564A765A766FFF7B7FF0023CA
:101EA0003146E364E765E5662046FFF7AFFF256549
:101EB0002566256702212046BDE8F840FFF7A6BF4A
:101EC0004FF07E551F4F84F8782000212046A564EE
:101ED000A765A766FFF79AFF01212046E564E7653D
:101EE000E566FFF793FF314625652566276720469F
:101EF000FFF78CFF6565656665670321DBE70025F5
:101F00004FF07E5784F8782000212046A564A7650D
:101F1000A766FFF77BFF01212046E764E565E566DC
:101F2000FFF774FF074B25650221236627672046CC
:101F3000FFF76CFF6765656665673146BBE7F8BD0F
:101F400070240020000080BF10B50446FFF7F4FCA9
:101F50002046FFF7E9FE2046FFF7B8FC42F688135B
:101F6000044AD35623B12046BDE81040FFF776BFA0
:101F700010BD00BF7024002013B50446FFF79EFD7E
:101F8000C0B1D4ED107AFDEEE77A5920CDED017A9B
:101F9000BDF9041050F01AF8D4ED117AFDEEE77A8D
:101FA0008020CDED017ABDF9041002B0BDE81040EB
:101FB00050F00CB802B010BD10B52DED028B90EDB5
:101FC000098AF0EE400AB0EE480A0446FFF754FDD5
:101FD000B4EEC08AF1EE10FA84ED090A08DD237828
:101FE00043F008032370BDEC028B84ED0A0A10BD98
:101FF000F9D5237843F00403F4E70000002941D029
:10200000DFED247AB4EEE70AF1EE10FA94BF012274
:102010000022037862F300030370002934D0DFED5F
:102020001E7AB4EEE70AF1EE10FAACBF01220022EC
:10203000037862F34103037041B390F90F305B42C0
:1020400007EE903AF8EEE77AF4EEE07AF1EE10FA65
:10205000ACBF01220022037862F382030370B9B19E
:1020600090F90F3007EE903AF8EEE77AF4EEE70ACF
:10207000F1EE10FAACBF01220022037862F3C30331
:10208000037070470122C4E70122D1E70122E2E791
:102090000122F2E700A08CC500A08C4510B5DFED51
:1020A000417AB0EEC07AB4EEE77AF1EE10FA2DED97
:1020B000048B0446F0EE676A67D490F90E30002B6B
:1020C00019DDDFED397A9FED396AB4EEE70A07EEE4
:1020D000903AF1EE10FAB8EEE77A59D836EE477A30
:1020E0005B42C7EE065A07EE903AF8EEE77AE0EE6A
:1020F000257AB0EE670A94ED047AF0EEC77AF4EE32
:10210000E67AF1EE10FA40D4B7EE009AB4EEC97A4E
:10211000F1EE10FA39DCFFEE007AB4EEE77AF1EE78
:1021200010FA32D4DFED219ADFED210AB5EEC00AB4
:10213000F1EE10FA40F2A930B0EE691A54BFF0EE99
:10214000498AF0EE678A1EF047FF80EE290A94ED77
:10215000048AF1EE007A68EE277AB0EEC00A39EE12
:10216000487A20EE270AA7EE070A1EF065FE38EE31
:10217000498A68EEA97A38EE008A28EE278AD4EDDB
:10218000047A77EEA77A88EE270ABDEC048B10BD9F
:1021900076EE475AC5EE867AA0EE277AB0EE470A69
:1021A000A9E700BF00000034000000B40000C842EE
:1021B0000000C8C208B5DFED197AF4EEE70AF1EEC7
:1021C00010FA2DED028BB0EE408AF0EE608A06DB4D
:1021D000492915D10021124865F07EF820B9B0EEEA
:1021E000480ABDEC028B08BDF0EE680AB0EE480A62
:1021F0000021BDEC028B0A48BDE8084065F078B8C4
:102200004A29ECD10121064865F066F80028E6D09D
:10221000F0EE680AB0EE480A0121EAE70000003457
:10222000D046002070B52DED028B462982B00546C0
:102230000C46B0EE608A07D0A1F14903012B03D907
:10224000A1F12103032B60D82846FFF727FFF0EE0A
:10225000480A21462846FFF7ADFF95F90860032E8E
:10226000B0EE408A2CD14FF0FF31204650F0A8F854
:1022700000284AD090F90630DFED287A002B14BFF1
:102280004FF0FF33012308EE903AF8EEE88A28EE8B
:10229000287AB4EEE77AF1EE10FA94BF0122002218
:1022A000242C2CD021D8222C25D026D8212C03D187
:1022B0000021686852F0F2FEB0EEC88A28EE888AE3
:1022C000462C04D01DD8A4F12103032B1DD8FDEE0C
:1022D000C87A2046CDED017ABDF9041002B0BDECFC
:1022E000028BBDE870404FF071BE492CE0D04A2C03
:1022F00001D0462CDBE70121DBE70221D9E731469B
:10230000D7E7A4F14903012B03D902B0BDEC028B3E
:1023100070BDF2EE047A28EE278AD8E7000000B4F8
:1023200030B52DED028B052983B004460D4600F330
:102330009E8040F23D109FED4F1ADFED4F0A1EF0D8
:102340004BFE013DB0EE408A052D1CD8DFE805F0BC
:102350000328475E758F21204FF002FD38B1DFED75
:10236000470AB0EE480A21212046FFF75BFF4620CE
:102370004FF0F6FC38B1DFED410AB0EE480A4621D5
:102380002046FFF74FFF50F0CFF850F007F94FF01D
:102390008DFC50F00BF9012003B0BDEC028B30BD79
:1023A00022204FF0DDFC38B1DFED340AB0EE480AF0
:1023B00022212046FFF736FF1A204FF0D1FC0028DB
:1023C000E1D0DFED2F7A28EE278A1A20FDEEC87AB9
:1023D000CDED017ABDF904104FF0F8FDD3E72320CD
:1023E0004FF0BEFC38B1DFED250AB0EE480A2321DC
:1023F0002046FFF717FF49204FF0B2FC0028C2D05B
:10240000DFED1E0AB0EE480A4921B9E724204FF05B
:10241000A7FC38B1DFED190AB0EE480A24212046A6
:10242000FFF700FF4A204FF09BFC0028ABD0DFED08
:10243000130AB0EE480A4A21A2E759204FF090FC57
:1024400040B1FDEEC87A5920CDED017ABDF90410F6
:102450004FF0BCFD80204FF083FC002893D0FDEEB0
:10246000C87A8020CDED017ABDF90410B4E70020D0
:1024700092E700BF0000C8420000C8C20000000090
:102480000000344230B52DED088B044683B0B0EE29
:10249000409AB0EE608AF0EE418A0D46002900F0C5
:1024A000DD8090F82C30002B00F0D3809FED727A05
:1024B00090ED050AB4EEC70AF1EE10FAB0EE47BA95
:1024C000C0F2A7809FED6DAADFED6DAA9FED6D9A1A
:1024D000C1EE0ABA4FF41C70C0EEAA9A9FED6A1AB8
:1024E000DFED6A0A1EF078FD20EE099AB0EE490A87
:1024F000A3F06EFD2BEE800AF0EEE97AB0EEC00A92
:10250000B4EEE70AF1EE10FA13D5F4EE4B9AF1EEC1
:1025100010FADFED5F7A2378A8BFF0EE409AF4EE70
:10252000E79AF1EE10FA43F0030398BFF1EE409AF8
:102530002370F0EEEB7AF4EECB7AF1EE10FA40D4A1
:1025400089EEAB0AA3F002FAB0EEC07AB4EEC79AF5
:10255000F1EE10FAF0EE407A0DD540F28220B0EEA6
:10256000491AF1EE490A1EF037FD237843F00303C0
:10257000F0EE407A237087EE898AB0EE670AA3F006
:1025800067FBF0EEC07AF4EECB7AF1EE10FA28EEAB
:102590002A8A16D4C8EE808ADFED3E7AF4EECA8A23
:1025A000F1EE10FAA8BF2378F4EEE78AA4BF43F057
:1025B00008032370F1EE10FA03D8237843F00403E4
:1025C0002370DFED320AB0EE680A46212046FFF79D
:1025D00029FE2946F0EE680AB0EE480A2046FFF7C9
:1025E0000DFD40F2BB209FED261ADFED2B0AB0EE69
:1025F000480A1EF0F1FCFDEEC07A1A20CDED017AFA
:10260000BDF9041003B0BDEC088BBDE830404FF0BD
:10261000DDBCD0ED067AF4EEC77AF1EE10FA06DBF7
:10262000B0EEC97AB4EEE77AF1EE10FA1EDC20467D
:10263000FFF738FA18B9237843F003032370DFED6E
:10264000147AB4EEE79AF1EE10FA98BFB1EE488A28
:10265000B7E7DFED0F7AB4EEE71AF4E790F90A3046
:1026600003B1032146204FF027FCB2E7C7EE876A8B
:1026700020EEA68AE3E700BF000000340000C84255
:1026800000A08C4535FA8E3C0000B44200000000EA
:10269000000000B40000C8C200A08CC538B52DED04
:1026A000068B04460D46B0EE409AF0EE608AF0EEDE
:1026B00041AAFFF7F7F9002800F0B5809FED5B8A8B
:1026C000F0EE680AB0EE490A20462946FFF796FC6C
:1026D0004FF43370B0EE481ADFED550AB0EE490AF8
:1026E0001EF07AFCA5B994F90A405CB10321492097
:1026F0004FF0E2FB0321BDEC068B4A20BDE83840D9
:102700004FF0DABB214649204FF0D6FB2146F2E7D5
:10271000DFED489A88EEA99A40F2DF20B7EE001A62
:10272000FFEE000A80EE080A1EF056FC4FF43870E7
:10273000B0EE408AB7EE001AB0EE490AFFEE000A8A
:102740001EF04AFCB0EEC8AAF0EEC07A3AEE27AA14
:10275000B7EE009AB4EEC9AAF1EE10FAF0EE408A94
:102760002DDDB0EE491A40F2E520DFED330A94ED9D
:10277000070A1EF031FCF6EE001AB0EE401AB4EE75
:10278000E11AF1EE10FA89EE0A0A9FED2CAA2EDB6F
:10279000B0EE492AF0EE490A1EF05EFB28EE008AF0
:1027A000F4EECA8AF0EEC87A79EE677AF1EE10FAA2
:1027B000BFEE000A88BFB0EE490A67EE808A38EEA5
:1027C000280A38EEC89AF0EE6A0A20EE290A204656
:1027D0004921FFF727FDF0EE6A0A29EE290ABDEC30
:1027E000068B20464A21BDE83840FFF71BBDB0EEFE
:1027F000612A32EE411ADFED101AF0EE490A1EF09E
:102800002BFB68EE808AB4EECA8AF0EEE87A79EEA5
:10281000677AF1EE10FABFEE008A88BFB0EE498AFF
:1028200027EE888ACBE7BDEC068B38BD00A08C452F
:1028300000A08CC50000C84200000000000000B4E9
:1028400070B52DED088B42F68813384AD3560546ED
:10285000B0EE609AF0EE418A002B45D0002946D0B8
:102860009FED338ADFED339A0121FFF7C7FBB0EE0E
:10287000481A4FF44270DFED300A1EF0ADFBDFED79
:102880002F7AC9EE27AA05F14806002480EE08BA7F
:1028900088EEA7AAB0EE678AF7EE008AB6EC017A56
:1028A000D6ED037A6BEE277A2046EAEE877A01347A
:1028B000E4B296ED077AEAEE077AB0EEE77AB4EE84
:1028C000687AF1EE10FAC8BFF0EE478A87EEA89A50
:1028D000FEF7E8FF01462846F0EE690A29EE080AED
:1028E000FFF7A0FC042CD9D1BDEC088B70BD90F98A
:1028F0000A406CB10C4695F87830E0B2984204F189
:102900000104F1DAFEF7CEFF03214FF0D5FAF2E72A
:1029100095F87830E0B2984204F10104E4DAFEF769
:10292000C1FF00214FF0C8FAF2E700BF7024002079
:1029300000A08C450000000000A08CC50000C8422B
:1029400038B5234B2DED028B1B68DB6C93F89C3064
:1029500004460D46F0EE408AB0EE608A13B90022BC
:1029600042621D462046FFF7BDF9B0EE480A2046F8
:10297000FFF722FB94ED091AD4ED080AB0EE680ABD
:1029800029462046FFF77EFDB0EE481AD4ED090A2D
:1029900094ED080A29462046FFF780FE94ED0C1AB4
:1029A000D4ED090A94ED080A29462046FFF748FFAE
:1029B0002046FFF7E1FA4FF0B7FD4FF0EFFD4FF083
:1029C00075F9BDEC028BBDE838404FF0EFBD00BF9C
:1029D0006824002010B5144B2DED028B1B68DB6CB6
:1029E00093F89C30044623B90023BDEC028B1846B3
:1029F00010BDD0ED097A9FED0D8AF0EEE77AF4EE86
:102A0000C87AF1EE10FAF0D5FFF74CF80028EBD0B9
:102A1000D4ED087AF0EEE77AF4EEC87AF1EE10FA27
:102A200054BF01230023E0E76824002000000034A5
:102A3000014859F0F9BF00BF7C4C002070470000EE
:102A40007047000000207047002070470120704749
:102A50007047000000207047C82070470120704771
:102A60000120704743F61813024AD05803681B68C8
:102A7000184700BF70240020054BD3ED007AFDEE0F
:102A8000E77A82B0CDED017ABDF9040002B070475B
:102A9000F045002041F65403014AD05C704700BF66
:102AA00070240020034B93F90000003018BF012070
:102AB000704700BF503D002041F65603014AD056F2
:102AC000704700BF7024002043F61813034AD05803
:102AD000034BC01A18BF0120704700BF70240020AC
:102AE000046300200020704770470000704700001A
:102AF00008B5044807F0F8F8002814BF0B200A2096
:102B000008BD00BF7024002070B5174D43F618169D
:102B1000A8590368DB6998470028A8590368DB684F
:102B20000CBF01244124984708B144F0080442F640
:102B30005833EB56002B0D4B04DD43F61812AA5800
:102B40009A420BD143F61812AA589A4203D0084869
:102B500066F0FCF828B944F0010070BD44F0400470
:102B6000F0E744F08004F6E77024002004630020BE
:102B70002053002000B58BB06223019319238DF8F8
:102B80002410009303AAC2218DED030ACDED040A9F
:102B90008DED051ACDED061A8DED072ACDED082A2B
:102BA00047F03CF80BB05DF804FB00002DE9F04164
:102BB0002DED028B204E002484B00746254606F5F5
:102BC000506896F8803FE1B2994211DA40463FF0F2
:102BD00089FB58B143681DB31A8807EE902AF8EEB6
:102BE000E77AB4EEE78AF1EE10FA19DC0134E8E78F
:102BF0008DB1DFED127A387CCDED038A532328EEB8
:102C0000278A0193082300930DEB0302AD218DED7C
:102C1000028A47F003F804B0BDEC028BBDE8F081F6
:102C20001A885B8808EE102A08EE903AB8EE488AB7
:102C3000F8EE688A0125D9E7702400200AD7233CE2
:102C400070B541F668036D4DEB5ADB07044625D598
:102C50006B4BDFED6C7AD3ED000A13ED010AD3ED77
:102C6000042A93ED032AD3ED021A93ED051A007C92
:102C700060EEA70A20EE270A0521FFF77BFF207CE4
:102C800046F08EFF0646207C47F06AFE19308642E9
:102C900004D2207CBDE8704046F03EBA41F668039D
:102CA000EB5A9E071AD5584B207CD3ED002A13ED22
:102CB000012A53ED021A93ED011A53ED040A13EDA4
:102CC000050A0421FFF756FF207C46F069FF0646FF
:102CD000207C47F045FE19308642DAD341F668037E
:102CE000EB5A580720D5494BDFED467A53ED040ADD
:102CF00013ED050AD3ED002A13ED012A53ED021A54
:102D000093ED011A207C60EEA70A20EE270A02212B
:102D1000FFF730FF207C46F043FF0646207C47F05B
:102D20001FFE19308642B4D341F66803EB5A1907E7
:102D30001DD50021364864F05FFB0721D0ED2B2A1A
:102D400090ED2A2AD0ED291A90ED2C1AD0ED270A01
:102D500090ED260A207CFFF70DFF207C46F020FF37
:102D60000646207C47F0FCFD1930864291D341F69F
:102D70006803EB5ADA061ED50121254864F03CFBB6
:102D80000821D0ED2B2A90ED2A2AD0ED291A90EDBA
:102D90002C1AD0ED270A90ED260A207CFFF7EAFED8
:102DA000207C46F0FDFE0646207C47F0D9FD193018
:102DB0008642FFF46EAF41F66803EB5A9B061BD5C3
:102DC000144B207CD3ED002A13ED012A53ED021A97
:102DD00093ED011A53ED040A13ED050A0921FFF7DB
:102DE000C9FE207C46F0DCFE0546207C47F0B8FD9D
:102DF00019308542FFF44DAF70BD00BF7024002034
:102E00000C490020E02E6542DC4900209C4A00204D
:102E1000D04600209C4B002070B505460E46144657
:102E2000114605486AF074FD224631462846BDE841
:102E300070404CF03BBB00BF704D0020014802F0D9
:102E4000BBBC00BF70240020014802F03FBC00BFA3
:102E50007024002030B58B8BC22B87B00C4647D036
:102E600009D8142B2ED0B22B38D0214607B0BDE89C
:102E700030404DF047BAD52B4AD0B3F5967F2AD0D3
:102E8000D12BF2D1D1ED017AFCEEE77ACDED037AC8
:102E9000D1ED007AFCEEE77ACDED047AD1ED027A3D
:102EA0009DF81020FDEEE77ACDED057ABDF91430DE
:102EB000009391ED030A9DF80C300146244805F07B
:102EC000FFFE06E023490222214806F089FEE8B908
:102ED000042007B030BD02221F49F5E743F618135E
:102EE0001B4A91ED010AD0580368DB6C9847EEE766
:102EF00043F61813164A91ED000AD558F7EE000A6A
:102F00001DF064FF0146284603F04AFC0020E0E77C
:102F100043F618130E4AD05803681B6998470028D7
:102F2000D6D0D4ED027A94ED000AD4ED010A0B4814
:102F3000F5EEC07ADFED0A7AF1EE10FA20EE270AFC
:102F400002DD04F001FFE1E704F0D0FEDEE700BFA0
:102F5000702400202C6600205C640020E4630020C4
:102F60000000C84208B548F093F940F2CD120023A2
:102F70001043194308BD000070B54FF4FC700D46B6
:102F800016460EF0FDFC3246044629464CF064FD20
:102F9000014B2360204670BD8CC70B0808B590F824
:102FA0008C30994208DD41F0EBFA17224FF4802172
:102FB00041F09CFA002008BD243150F8210008BDE2
:102FC00008B590F88C30994208DD41F0D9FA0F220B
:102FD0004FF4802141F08AFA002008BD243150F8D6
:102FE000210008BD10B504460EF0D0FC204610BDEF
:102FF0000C4B43F628129A5C7AB943F630129A5C6D
:103000005AB943F618129858074B984207D03833EC
:1030100098420CBF0320042070470520704702200F
:10302000704700BF702400200463002038B5F7EE1D
:10303000000A91ED030A05460C461DF0C7FE38B1A3
:10304000114806F00FF808B1002038BD042038BD43
:10305000F7EE000A94ED050A1DF0B8FE18B10B4812
:103060006EF0C0FEEFE7F0EE000A94ED050A1DF0E9
:10307000ADFE18B105486EF0C1FEE4E721462846D2
:10308000BDE838404AF088BE702400202C4E002055
:1030900010B594B0044603A80EF074F943F6181363
:1030A000194AD058036803A91B6C984750B3247C75
:1030B0006FF0C6FF059B0893069BDDED047A09932C
:1030C00000230B930C930D930E930F931093119376
:1030D00012934FF6F873F8EEE77A9FED0C7AADF89D
:1030E0004C3000238DF84E30962367EE877A01939B
:1030F00033230790009307AA57212046CDED0A7A83
:1031000046F08CFD14B010BD702400200AD7233C7B
:10311000F0B52DED028B2D4D43F6181406462859B7
:1031200003688DB0DB68984700284AD02C5928489E
:10313000377CDFED288A65F0EFFA236820461B6BA9
:1031400060EE288A98472368FDEEC07ADB6ACDEDF1
:10315000037A2046BDF90C6098472368FDEEC07ADB
:10316000DB6BCDED037A2046BDF90C509847DFEDBF
:103170001A7A2368B4EEE70AB0EE408AF1EE10FA4C
:1031800058BFB0EE678A5B6B20469847FCEEC87A62
:10319000002305930793089317EE903AADF82C306F
:1031A000B72301931A23009305AA3E213846CDED9B
:1031B000068A8DED090AADF82860ADF82A5046F070
:1031C0002DFD0DB0BDEC028BF0BD00BF70240020C2
:1031D00068480020E02E654200FF7F4708B590F860
:1031E000F63153B9806A03681B6A9847B0F5005FEF
:1031F00028BF4FF4005080B208BD002008BD000079
:1032000070B52DED048B044600F5055088B01C30D8
:103210000D46FEF747FC9FED338A002849D0492030
:103220004EF0E6FE07EE900A9FED2F9AF8EEE77A51
:103230004A20C7EE898A4EF0DBFE07EE900AB8EE10
:10324000E77A68EE888AC7EE097A27EE888A6FF0F7
:10325000F7FE064604F57B604FF09EFEFDEEE87A31
:10326000002217EE903AFDEEC87AADF80C3017EE5A
:10327000903AADF81030ED2301931623ADF80E20EF
:10328000ADF81220ADF81420ADF81620ADF81820D6
:10329000ADF81A208DF81C208DF81D00009302AAAD
:1032A00022212846029646F0B9FC08B0BDEC048BFA
:1032B00070BD1A204EF09CFE07EE900AB8EEE77A39
:1032C000DFED0A7AC7EE278A46204EF091FE07EE20
:1032D000900A9FED077AF8EEE76A68EE888AC6EEF4
:1032E000877AB2E700401C4600007A4400A08C4573
:1032F0000000C8422DE9F04142F24C23C6B0C75C41
:1033000004460E46002F33D08022002102A8A5F0EB
:1033100061FC0025EBB29F4205F101050CDD02AA1C
:1033200002EBC30803F69C7304EB83035868FDF7B4
:1033300011F9C8E90001EDE76FF082FE42F24C237B
:1033400002A9E25C8DF810214FF47A735843229061
:103350000023802224A82393A5F016FC7123019357
:103360008923009322AA42F22831304646F056FCC7
:1033700046B0BDE8F08100002529F7B505460E46A8
:1033800040D006D81A291AD0314628464BF054F9B5
:1033900023E0352928D03929F6D15CF0EBFB07462C
:1033A00000B32846FFF71AFF0446287C47F0D8FAF6
:1033B000263084424FF0000432D2287C0AE0FFF726
:1033C0000DFF0446287C47F0CBFA16308442297C56
:1033D00005D2084645F0A0FE002003B0F0BD184815
:1033E000FFF70EFF0120F8E7FFF7F8FE0446287C00
:1033F00047F0B6FA89308442297CEAD31048FFF7B7
:1034000079FFEFE7FFF7EAFE0446287C47F0A8FAC9
:103410000C308442297CDCD30A486EF0FBFCE1E7E7
:1034200002AA314622F8024D284649F0BFFE002884
:10343000D8D0BDF80620297C38465CF079FAD1E76F
:10344000702400202C4E0020F0B541F65403204D8E
:10345000CA79EB5E9A4287B0074637D1CA780B2A01
:103460004FF0000428BF0B220C3103A804940394EE
:10347000CDF81340A5F088FB41F652039DF81620C5
:10348000EB5E9A4222D16FF0DBFD42F6A851064670
:10349000BDF90E2000909FED0F0A695801944FF47A
:1034A0007A7338464CF040FA42F6AC51BDF9102020
:1034B0009FED080A695801944FF47A7338460096D4
:1034C0004CF032FA4CF062FAC0F8A86107B0F0BDD7
:1034D000702400200000FA44F0B52DED048BCC7868
:1034E0002E4E8FB0272C0D464FF027024FF00001D3
:1034F00004A828BF2724A5F06DFB05F10C0143F6B5
:103500001815224604A8A5F03FFB705903681B69F3
:10351000984798B39DF8364014F040072ED140F2FA
:103520002B30B7EE001AFFEE000A9DED0C0ADFED1E
:103530001C8A9FED1C9A1DF04FFD394670598DED88
:103540000C0AB0EE408A03F017F914F0040F28EECD
:10355000008A17D0059B0093069B0193079B02935B
:103560006846089B03931FF08FFC20EE280AF0EEBC
:10357000480A20EE090A0C4804F0B8FB0FB0BDEC75
:10358000048BF0BD9DED0B0A074820EE280AF0EEF3
:10359000480A20EE090A04F0FBFBEFE77024002044
:1035A000E02E65420000C842E463002038B50446BE
:1035B0000D460548082106F093FB294602462046A1
:1035C000BDE8384048F042BD7024002010B543F6F5
:1035D0001813084AD05803681B690C46984740B135
:1035E00004F108019FED040A0448BDE8104004F00E
:1035F00017BB10BD70240020804FC347E463002038
:103600002DE9F04F2DED048BCC78884E97B0352CFA
:1036100028BF35240D463522002108A8A5F0DAFA86
:10362000224605F10C0108A8A5F0AEFA43F61813DE
:10363000F05803681B699847002800F0EF809DF858
:1036400054700B2F00F2EA8040F66943FB40DB0721
:1036500040F1E480764BBDF850400FCB0DF11008DF
:1036600088E80F0014F0030304F0180A04F0C00BFC
:1036700004F4806904F4006501930ED1099A0A9B51
:1036800003931946104602921DF0B2FE002800F086
:10369000C580029A039B06920793BAF1000F3FD1AF
:1036A00043F618135146F05803F066F8DDED0D8A25
:1036B0009DED0C9AB0EE408A28EEA80AA9EE090A00
:1036C0001DF0BAFBB0EE481AF1EE480A40F2E330C2
:1036D0001DF082FCF0EE490AB0EE408AB0EE680AB6
:1036E000A2F05CFD9FED539ADFED538A20EE090AAC
:1036F000A7F10803012B20EE280A15D841F2A813E0
:10370000F35807EE903AF8EEE77A37EE800A1DF0AC
:103710000FFCB9F1000F71D015B3DFED487A2CE042
:103720009FED460AB0EE408AB9F1000F17D1DFEDE8
:10373000417A9DED120A083F20EE270ADFED3E7A1E
:10374000012F20EE270A0AD841F2A813F35807EEFA
:10375000903AF8EEE77A37EE800A1DF0E9FB75BB88
:103760009FED347ADDED137A67EE877A9FED327A3A
:1037700067EE877ABAF1000F47D104F44064B4F5DC
:10378000406F50D09FED2E7ADDED0C6AF4EEC76AE3
:10379000F1EE10FAB7EE007AFFEE000A88BFF0EE05
:1037A000470A019BA3B3BBF1000F37D0B4F5406FBC
:1037B00008D160EE880A234804F098FA2EE0DFED85
:1037C0001F7AD7E7B9F1000F08D03DBB60EE880A39
:1037D000B0EE670A1B4804F0DBFA1FE0F5B1E8E73A
:1037E000BBF1000F1AD0B9F1000F03D1B5B1DFED75
:1037F000130AE0E795B9DFED110AE9E79DED120A3A
:1038000020EE090A20EE280A9EE7019B002BE7D153
:103810009FED0D0A0B48414604F002FA17B0BDECCB
:10382000048BBDE8F08FF7EE000ABAE770240020A1
:10383000C45C0020E02E65420000C8420000000089
:10384000000000B4E4630020804FC34770B543F626
:1038500018133C4D2DED028B0646E85891ED018A78
:10386000036886B01B690C469847E0B9BDEEC88A6C
:1038700018EE103ADB0716D4022006B0BDEC028B1E
:1038800070BD02220F212F4806F002FA002845D110
:103890000420F2E743F61813E8580368DB6C9847F6
:1038A0000028F5D043E0616920691DF0A1FD0028E2
:1038B000E2D0236913B96369002BDDD002A80DF0B3
:1038C00061FDD4ED067A9FED207A23690493F0EE32
:1038D000E77AF4EEC77A63690593F1EE10FACBDC70
:1038E00001AA94F8201030464BF05EFF0028C3D0A8
:1038F000D4ED067A9FED157A019A67EE877A02A8D1
:10390000FDEEE77A17EE901A0DF042FD43F618131C
:10391000E85803681B6998470028B2D094ED000A64
:10392000DFED0B7AB4EEE70AF1EE10FAB2DA9FEDB2
:10393000090A094802A904F073F90028A8D0002058
:103940009BE700BF70240020001CA2470000C84273
:1039500000000034804FC347E463002010B58A8B19
:10396000C02A0B4611D0C22A13D0B22A21D1134942
:1039700093ED010A43F6181288580268D26C9047FA
:1039800000280CBF0420002010BDBDE81040FFF748
:103990005DBF43F61812094993ED000A8C58F7EE03
:1039A000000A1DF013FA0146204602F0F9FE00203D
:1039B00010BDBDE810404BF097BF00BF7024002041
:1039C0002DE9F04F2DED048BCC7899B0352C28BF24
:1039D00035240D46352200210AA8A5F0FBF8224621
:1039E00005F10C010AA8A5F0CFF8934C43F6181383
:1039F000A046E05803681B699847002800F0DD8066
:103A00000DF1080948460DF0BDFC49468B4808F009
:103A100071FF002800F0D1809DF85C60012E03D07A
:103A2000F31F022B00F2C980BDF8585005F0C00307
:103A30000093834B0FCB06AC84E80F0015F0030313
:103A400005F0180B05F4806A05F40067019318D19E
:103A5000072E63D05ED3092E5CD87A4B9DED0C0AFD
:103A6000D3ED007AD3ED036A9DED0B7A60EE270A61
:103A700026EEC00AE7EE260AA7EE270A20460DF03A
:103A800021FEBBF1000F4ED143F61813594658F8EA
:103A9000030002F071FEDDED0F8A9DED0E9AB0EE8F
:103AA000408A28EEA80AA9EE090A1DF0C5F9B0EE71
:103AB000481AF1EE480A40F27B301DF08DFAF0EE24
:103AC000490AB0EE408AB0EE680AA2F067FB9FEDAB
:103AD0005E9ADFED5E8A20EE090AA6F10803012B4B
:103AE00020EE280A23D841F2A81358F8033007EE35
:103AF000903AF8EEE77A37EE800A1DF019FABAF13B
:103B0000000F40F094809DED140A20EE090A20EE8B
:103B1000280A1CE099E80F0084E80F00DDED0C0A8C
:103B20009DED0B0AAAE79FED4A0AB0EE408ABAF172
:103B3000000F18D1DFED447A9DED140A083E20EE07
:103B4000270ADFED427A012E20EE270A0BD841F238
:103B5000A81358F8033007EE903AF8EEE77A37EEFC
:103B6000800A1DF0E5F96FBB9FED377ADDED157A20
:103B700067EE877A9FED357A67EE877ABBF1000FA3
:103B800047D105F44065B5F5406F3FD09FED317AE0
:103B9000DDED0E6AF4EEC76AF1EE10FAB7EE007AC8
:103BA000FFEE000A88BFF0EE470A019B6BB99FED5C
:103BB0002A0A2A48214604F033F819B0BDEC048BD8
:103BC000BDE8F08FDFED227AD8E7009B002BF4D020
:103BD000B5F5406F05D168EE200A204804F086F85C
:103BE000EBE7BAF1000F09D0002FE6D168EE200A0A
:103BF000B0EE670A194804F0CBF8DEE7002FDCD0FE
:103C0000E9E7002FD9D1DFED120AF1E7F7EE000A5C
:103C1000CBE7019B002BCAD0009B002BCDD0BAF183
:103C2000000FEED1002FC8D0DFED090AD5E7002F35
:103C30009AD0DFED077AA4E7702400200036002038
:103C4000C45C002040370020E02E65420000C842DE
:103C500000000000000000B4804FC347E463002070
:103C600030B48D7A4B7A43EA0523CD7A43EA054393
:103C7000542B04460A4618D008D8452B0FD0522B97
:103C800010D02046114630BC4CF040BC6D2B0FD0FC
:103C9000A62B0DD0562BF4D130BCFFF7B1BC30BCF5
:103CA000FFF7D2BB30BCFFF717BC30BCFFF788BEB4
:103CB0002046114630BCFFF779BC000041F65203A4
:103CC000014AD05C704700BF70240020074B43F6C8
:103CD00018129958064A914201BF42F6B8129856F6
:103CE000B0FA80F0400918BF00207047702400200F
:103CF000E066002043F61812064B9958064A914296
:103D000006D142F6B8129856431E584258417047A1
:103D10000020704770240020E066002038B5C36999
:103D2000204D43F4B843C36143F618130446E858E2
:103D300003681B6A984738B1636A226A43F4406398
:103D400042F440622262636243F61813E858036843
:103D5000DB68984738B1636A226A43F4A04342F4AF
:103D6000A04222626362104B1868C8B190F880329A
:103D700023B938BD3EF0A8F970B938BDE36943F402
:103D80008073E361236A43F48073236200213EF071
:103D9000A9FA0028EED138BD636A43F480736362E8
:103DA00038BD00BF702400209C68002030B5044658
:103DB00000F50F5085B0383064F0AEFCDFED237AAB
:103DC00020EE270ADFED227A04F58C5520EE270A33
:103DD0001035002301A9284601938DED020A0393B3
:103DE00007F09CFD09F050FD09F04AFD284607F058
:103DF00003FD284607F02AFE04F5375504F5125254
:103E00001832A621284641F083F904F515522846B8
:103E10001832A52141F07CF9204601F04FFC30B169
:103E200004F518521832A321284641F071F942F6E0
:103E3000FC33084AD356002B06DD04F51C52183219
:103E4000A221284641F064F905B030BDE02E65425C
:103E50000000C842702400202DE9F04124268AB0D9
:103E6000154607463246884601A800211C46A4F0A4
:103E7000B1FEA3238DF8043095238DF805300E2371
:103E80008DF806306FF0E4F82B6804936B680593A7
:103E9000AB680693236807936368CDF80700CDF8F5
:103EA0000B1008933246A3688DF80F8001A907F51F
:103EB0003750099341F018FE0AB0BDE8F0810000C8
:103EC00070B51D2688B00446324600216846A4F02D
:103ED00081FEA3238DF8003095238DF80130022355
:103EE0008DF802306FF0B4F843F61815CDF80300E2
:103EF0006059CDF807100368DB6B984710EE103A55
:103F00006059CDF80B300368DB6A984710EE103A21
:103F10006059CDF80F3003681B6B984710EE103ACC
:103F2000CDF8133041F2A8136059E35AADF81730B9
:103F300003685B6B984710EE103A3246694604F509
:103F40003750CDF8193041F0CFFD08B070BD0000FA
:103F50002DE9F04F2DED048B42F6FC333E4AD3564B
:103F6000002B95B082466ADD00F5375B3B486DF06B
:103F70002DFF002868D00AF52753D3ED0E8A9FED58
:103F8000388A0AF5275393ED0D9A08F0EBF890ED77
:103F9000030A39EE400A1DF00BF80AF5285368EEC3
:103FA000888A1A680AF527533C3320EE088A1B6872
:103FB000129213936FF04CF80D460AF50651044621
:103FC000C869FCF7C7FA0F460AF506510646086AA3
:103FD000FCF7C0FA80460AF52F503C30894605F0C0
:103FE000C3F810EE100AFCF7B5FA139BCDE91001E7
:103FF0001846CDE90E89CDE90C67FCF7ABFA129AA9
:10400000CDE90A011046FCF7A5FACDE9080118EE42
:10401000100AFCF79FFACDE9060118EE900AFCF7AA
:1040200099FA104B0193104B0093CDE90401CDE9AF
:1040300002450E4B0E4A0F49584642F0A5F815B0FE
:10404000BDEC048BBDE8F08F0B4B1A4608EE103A1E
:1040500008EE903AACE700BF702400202C4E002000
:10406000E02E654207D70B0810D70B08B8D60B080F
:10407000C1D60B0802D70B085241C07F7FB50E2571
:1040800004462A460E4668460021A4F0A3FDA32359
:104090008DF8003095238DF8013006238DF802301D
:1040A0006EF0D6FF44F23403CDF80300CDF80710CC
:1040B000E35A8DF80B602A46694604F53750ADF88F
:1040C0000C3041F011FD04B070BD0000F0B590F867
:1040D000A13B0C2202FB03038BB003F516630AA974
:1040E00000F50F555E681E4B41F8243D38350446F7
:1040F0001D27284664F092FB3A46002102A8A4F04E
:1041000069FDA3238DF8083095238DF8093001232C
:104110008DF80A306EF09CFF42F6AC53CDF80B00E0
:10412000E358CDF80F101B89ADF8133004F5065392
:1041300028461B68CDF8153064F03EFC10EE103AAE
:104140003A46CDF8193002A9019BCDF81D3004F58F
:104150003750CDF8216041F0C7FC0BB0F0BD00BF77
:104160005241C07F38B500F537540546204640F02F
:1041700039FB204640F0C6FB95F9B03F23B12046FD
:10418000BDE8384040F044BC38BD000010B5012106
:104190000446FFF773FF43F61813E05803681B68E3
:1041A000984741F63C03C1B2E25C04F5375041F058
:1041B0000FFE04F58C50103007F084FE04F5827079
:1041C000BDE8104012F016BD9322024900F53750A9
:1041D00042F064B8F0C80B082DE9F04304468DB0F6
:1041E000274805F081FD30B104F5506519212846B6
:1041F0003EF00AF910B90DB0BDE8F08308A80DF043
:10420000C1F804F58C5008A9103008F0D1FD002841
:10421000F1D0192128463EF001F943F63813E2584F
:104220009042E8D0E0506EF013FF06460F46284655
:104230001921DDF82880DDF82C903EF0CBF807EE50
:10424000900AB8EEE77ADFED0F7A67EE277A04F589
:10425000375417EE900AFCF77DF90B4B01930B4B8B
:104260000093CDE90601CDF81490CDF81080CDE98A
:104270000267074B074A0849204641F085FFBAE725
:10428000702400200AD7233C3BD70B0840D70B08EB
:104290001CD70B0821D70B0836D70B08F0B52DED2E
:1042A000028B8BB00AA900F50F55304B41F8283D21
:1042B000383504462126284664F01EFB324600218C
:1042C00001A8A4F087FCA3238DF8043095238DF872
:1042D00005300D238DF806306EF0BAFE42F6A85375
:1042E000CDF80B10E358CDF807001B89ADF80F305F
:1042F00004F505533C339FED1E8A1B68CDF8113041
:1043000043F61813E05803689B6B984710EE103A79
:104310002846CDF81530009BCDF8193064F078F9B7
:1043200020EE080A04F58C5510EE103A1035284698
:10433000CDF81D3008F0FCFC0746284608F004FDC7
:1043400000F1180138461FF0CDFB20EE080A324676
:1043500010EE103A01A904F53750CDF8213041F0A4
:10436000C3FB0BB0BDEC028BF0BD00BF5241C07F60
:10437000E02E6542F8B504465EF0D2FB04F15C0025
:104380004DF020FB354F364BE36504F178060025F0
:1043900070194CF051FD77512835B5F5207FF7D1D4
:1043A00004F53E704EF04AF82E4904F6140066F00B
:1043B000E7FE04F515652C4904F6D400FDF778FAFC
:1043C000284662F0E7FD294604F6D81004F5376563
:1043D00062F032FF2549284663F0B6FF002104F65B
:1043E000C86068F0F5FA04F6847058F0E1F904F555
:1043F0008150183058F0D2FF04F58350183069F01E
:10440000C1F904F5885041F21C16083056F04CFAF8
:10441000A0193DF0C9FC164BA35104F58950143086
:104420006DF0C0FC04F58C50043009F033FA04F54B
:104430009650104A2946143066F0D4F904F59B5082
:10444000143004F031FE04F59D50183058F02CFD66
:10445000204609493DF0C2F82046F8BD0C090C0879
:1044600028090C08303500209C350020003600203B
:10447000E0C50B087053002090F90B08F0B5AFB001
:1044800004463BF04DFE694D40B92B686849986B76
:1044900003681B68984767486EF0AAFD41F6480616
:1044A000A71938463DF010F8002800F09780A35F68
:1044B000102B40F093806EF0C1FD07463CF08AFF60
:1044C000002216215C483CF041FD3DF099F95B4A21
:1044D00013881A2143F00203002013804DF08AFF55
:1044E000022046214DF086FF204601F0E7F838B162
:1044F00042F6F806A0193CF025FA08B91E23A35588
:104500004DF0C6FD2B689D6B2B681E686EF096FD06
:104510004B49C21B2846B04704F53C5028303CF0BC
:1045200011FA20B904F53C544FF08243A362454C84
:1045300094E80F0002AD85E80F00694628463CF07C
:1045400043FCF0B104F110030EAA1834186859683E
:10455000154603C50833A3422A46F7D118681B79CC
:1045600028602B719DF800300C2B0AD82EAA13441A
:10457000059813F8803C00EE103AB8EE400A3DF082
:10458000FDFA314C94E80F0006AD103485E80F00B9
:1045900094E80F000AAE86E80F0001A928463CF017
:1045A00013FC0146B0B10021B7EE000A28463CF0EA
:1045B0003BFC802225490EA8A4F0E6FA00240EABAD
:1045C00018190022012110343CF0C0FC802CF6D1D7
:1045D0002FB0F0BDB7EE000A3046E8E72E681C4960
:1045E000B06B03681B6898474EF026F83BF004FA5E
:1045F00041F648029FED177AA35E103B07EE903A12
:10460000F8EEE77A1023F0EEE77AF4EEC77AF1EEEF
:1046100010FAA3524CBF0121002138463CF090F81B
:10462000B06B0D4903681B68984744E76824002075
:1046300074FC0B0883FC0B0830F80B088068002022
:1046400091FC0B08A0BF0B08C0BF0B08E0BF0B0814
:10465000A5FC0B0800000034C9FC0B080F29DDBFC6
:10466000282303FB01001C3000207047014B93F905
:1046700000007047F03C002043F62013024AD05C53
:10468000C04300F0010070477024002042F6A85398
:10469000014AD058704700BF70240020002910B58F
:1046A00014DB0B4C42F65C63E35C99420EDC42F691
:1046B00058632046E358595C02F04AFB014628B192
:1046C00020460122BDE8104005F08ABA10BD00BFA7
:1046D0007024002008B53AB1022A11D101220948FC
:1046E000BDE8084005F07CBA43F61813054AD358D4
:1046F000994205D14DF08CFABDE808404DF04EBA14
:1047000008BD00BF7024002030B587B002AC18226D
:10471000002110256846A4F05DFA2A4600212046B3
:10472000A4F058FA20460CF02DFE0C4BADF80250C8
:104730000FCB84E80F006946094820F0A9F850B172
:10474000084B09491B68986B44F2340203688A5A83
:104750001B680649984707B030BD00BFC45C002005
:10476000946400206824002070240020F0080C08C5
:1047700001290A4603D005D3022906D101220348A4
:1047800004F060BD01220021F9E770476C50002061
:10479000392903460DDC322921DA07291FD003DC31
:1047A000081F012818D87047102918D02A2913D1BA
:1047B0007047CA2908DCC92911DA3F290FD04A29D4
:1047C00007D03B2908D17047CF2908D0D32903D17E
:1047D00070471146FFF7CCBF18464CF0A9BA704796
:1047E0003629F8B5074615466FD03BDC10296ED048
:1047F00025DC04296DD007DC00294DD02A46384637
:10480000BDE8F8404CF064BE052974D00729F5D105
:10481000022A41D1494D4A4E43F61812AA58B242D3
:104820003AD0484864F092FA0446B8BB06F1380022
:104830001FF088FE2146284600F0BEFF2CE03329F9
:104840003DD009DC2A2946D03229D7D1022A23D1EA
:104850003A4801F0F9F81FE0342934D03529CDD198
:1048600039492DE03F293ED008DC382937D034DBE8
:10487000392936D03B29C1D1344921E0CA2907DC86
:10488000C92909DA4A29B9D11146FFF771FF03E0B6
:10489000CF2901D0D329B1D101240EE043F618135A
:1048A000EB58B342F8D044F23403EB5E13B9384608
:1048B000FFF72AFF3846FFF727FF2046F8BD2449B7
:1048C000FFF708FFE8E72349FAE72349F8E71C491F
:1048D000F6E72249F4E72249F2E72249F0E72249C4
:1048E000EEE72249ECE743F61813144AD058036860
:1048F0001B6D9847D0E71E48FDF7D4F80028CBD1B0
:10490000104864F023FA04460028C5D00B4A43F649
:104910001813D358144A9342BED0A2F51A72934288
:10492000BAD0022DB8D11A204DF04AFA4BF02EF829
:10493000104A294644F08CF9BFE700BF70240020DC
:104940005C64002020530020F0650020E066002019
:1049500074630020AC6300203C6300202C660020C0
:1049600068660020E4630020A4650020A46600209F
:10497000CC450020D8080C08002070470020704764
:1049800000207047002070477047000000207047EB
:10499000002070470020704708B50368DB6898471F
:1049A00080F00100C0B208BD0120704701207047AF
:1049B0009FED010A704700BF000000000020704713
:1049C000012070470020704770470000102070479A
:1049D00000487047940D0C08704700000020704795
:1049E00001207047002070470020704708B543F64B
:1049F0001813C05803681B689847C0B208BD000070
:104A0000034808602A21117008221A60704700BF0D
:104A1000280A0C0803689B6D1847000003685B6850
:104A20001847000005F024B801F0DAB800F016BF0E
:104A300050F09CB83EF002BC1AF062BA41F06CB97A
:104A400004F0E6BF04F02EBF0DF0B4B838F018BE85
:104A500003F0FCBE01F0C8B901F056BB0BF0EEBC90
:104A60004EF062BB05F012B855F06EBF50F038BB87
:104A70000BF028B84DF052B84BF0D4BF4AF0F8BD57
:104A800004F0F8BE04F026BF503057F073BE0000AB
:104A90006DF052BA66F0BEBD09F078BE13F0D8B81A
:104AA00000F060BD04F0D8BF04F0BABA01F0FABA61
:104AB00002F0B8BD02F068BD02F04ABB38B52DED7A
:104AC000028B43F618130546C05803681B69B0EE05
:104AD000408AF0EE608A9847044640B105F57D5063
:104AE000F0EE680AB0EE480A343003F081F9BDEC0C
:104AF000028B204638BD0000013910B51446072945
:104B000054D8DFE801F00413273341474D1D00F569
:104B1000065393ED040ABC20B7EE001AFFEE000A1C
:104B20001CF05AFA84ED000A012010BD00F506536E
:104B3000B7EE001ABF20FFEE000A93ED050AEFE77B
:104B400000F50653B7EE001AC220FFEE000A93EDFF
:104B5000060AE5E700F5065090ED000AC520B7EE1D
:104B6000001AFFEE000ADFED127A0AE000F50550A8
:104B7000DFED107A90ED0F0AB7EE001AC820FFEEB5
:104B8000000A80EE270ACBE700F5065090ED030AF5
:104B9000CB20E4E700F5065090ED070ACE20DEE7D3
:104BA00000F5065090ED080AD120D8E7002010BD8E
:104BB0000000C84200A08C4570B51A4B036043F258
:104BC0003C63194AC25043F2E8730446C05808B126
:104BD0000CF0D8FE154B236041F62C03E218127935
:104BE0003AB9E5582DB1284619F000FA28460CF0DC
:104BF000CDFE04F58550083063F034F904F57B6090
:104C00004EF0C0F80A4BC4F8103904F52A6604F6D1
:104C1000BC25AE4204D01C3D284643F04DF9F8E7D0
:104C2000204670BDA40D0C0840BC0C0874A10C08F3
:104C3000E86F0C0870B543F6181405460059036870
:104C40001B690E46984740B128599FED040A036836
:104C500031465B6CBDE87040184770BD804FC3475C
:104C6000F8B5094B43F61815074658590368DB6831
:104C70000E469847044628B178590368DB6B98477D
:104C800086ED000A2046F8BD70240020F8B5094BD7
:104C900043F61815074658590368DB680E469847CF
:104CA000044628B178590368DB6A984786ED000A04
:104CB0002046F8BD70240020F8B5094B43F61815BE
:104CC000074658590368DB680E469847044628B1E2
:104CD000785903685B6B984786ED000A2046F8BD5B
:104CE0007024002070B52DED028B43F61813064694
:104CF000C05803681B690C469847054600B394EDFD
:104D0000010AD4ED007A20EE000AA7EEA70A1CF0F3
:104D100093F8D4ED000AB0EE408A94ED010AA1F0B8
:104D20003DFADFED097A20EE270ADFED087A06F575
:104D30007D50F0EE480A20EE270A343002F0D6FF0C
:104D4000BDEC028B284670BDE02E65420000C842D3
:104D5000424B37B5044640F8043B4FF0B3FF04F133
:104D6000200055F0F7FE04F108053D4B3D491D605C
:104D700028463CF033FC3C4B0193009402AB13E912
:104D8000060004F158003EF075F804F5827011F049
:104D90006BF804F5816009F059FB04F5AF600FF082
:104DA00033F904F5116019F033FF04F544604FF056
:104DB000CFFD04F550603DF0F5F904F57B604DF052
:104DC000C9FF04F6EC700BF055FC04F58550083073
:104DD00063F034F804F586503EF02AFC04F589505F
:104DE000043050F0BFF841F22C130025E218E554CE
:104DF00004F589501D4B1C301A6038F027FB04F570
:104E00008C502946103007F041FB04F5B4500830AF
:104E10005DF04CF904F5B450143052F0E5FE04F5A1
:104E2000B6505DF067FE04F5B650043060F0DAFA73
:104E300004F5BE501C3062F0DDFB41F63C03E55446
:104E40000B4D2B6813B10B486EF0D2F820460A497F
:104E50003CF0C4FB20462C6003B030BD74A10C08AC
:104E600084670020602C0C08154A0108FC730020A0
:104E7000D4680020E4090C08F4A00C08F8B5044636
:104E8000274601F0E1FA214B47F8383B204B636598
:104E9000204BE365204B63662465A465246604F11A
:104EA00070000CF06FFA04F1880000250CF06AFA2B
:104EB0004FF6FF7604F1A0000CF064FAA4F8B050AD
:104EC000A4F8B260A4F8B46004F1B8000CF05AFA87
:104ED000124B1349C4F8045138461F603CF07EFB66
:104EE00094F83930A4F8686003F0F40365F3041310
:104EF000A4F8806084F8385084F8393084F8B650CB
:104F000004F590700CF03EFA2046F8BD14150C081C
:104F1000B14A0108B54A0108B94A0108B46700203E
:104F2000FC7A0C08F0B5044685B0FFF711FF984BEA
:104F30002360984B984A1A6004F5C251053100234A
:104F400018269DB2284670430133105C0028F8D122
:104F5000924B1D80924B1D6815B192486EF048F837
:104F600004F5C45008301960FFF704FA04F5365010
:104F7000203066F0EBF842F6A85304F5C251E55034
:104F800042F6AC530C31E55042F6B05304F53750BD
:104F9000E55040F0DFFC42F6586204F5C45301339B
:104FA000A35042F65C63062204F53950E25442F6FF
:104FB000B06620304DF04AFCA01963F0A3FE04F562
:104FC0003C50794BA351794B036004F58C5310335B
:104FD000436000234363C363012380F8443085604A
:104FE00080F84C5072493CF0F9FA04F53D5010300D
:104FF0003AF092FC04F53E50083068F0C3FE43F2EC
:105000003C636C4AE250E71804F55B5607F128054B
:1050100008362846143547F093FDB542F9D143F2DE
:10502000E876A5190523AB800023EB802B814FF494
:1050300091700CF09FFCA05105F10C006DF080FD0B
:1050400004F5605038306DF07BFD5B4B1A6802B997
:105050001F6043F23C6304F56156584AE25014362F
:1050600030460CF08FF904F5615504F562500CF0F0
:1050700089F94FF480536B66AE6624355049284653
:105080003CF0ACFA4F4B04F562502C301D604DF0F3
:105090009BFF43F6946543F618136619E6504A4B96
:1050A00003934A4B0093029404AB13E90C004FF4B2
:1050B000007104F565500AF0A5FA304601F0C4F914
:1050C000434B635143F6CC65601901F0BDF9414B88
:1050D000635143F60475601901F0B6F93E4B635114
:1050E00043F63C75601901F0AFF93C4B635143F650
:1050F0007475601901F0A8F9394B635104F57F50BC
:105100001C300CF03FF944F2341604F57F50A51919
:105110002C30FFF7B3FE284601F096F9314BA3512E
:1051200005F1380004F583450CF02CF9284601F010
:105130008BF92D4B2B6044F2BC15601901F084F9FA
:105140002A4B635144F2F815601901F07DF9284BA0
:10515000635144F23425601901F076F9254B63510F
:1051600044F27025601901F06FF9234B635104F587
:1051700085453035B0EE000A284643F07FF8B0EEA2
:10518000000A05F1100043F079F8204605B0F0BDA3
:10519000A40D0C0890680020D0FC0B088C6800203F
:1051A00050680020780D0C08A4C30B0828FE0C08DA
:1051B000BCFD0C0840BC0C083871002068C80B0806
:1051C000542D0C088C670020AD4A0108700D0C08A6
:1051D00084090C088C160C086C170C0874130C0846
:1051E00024160C08FC160C084C190C08E8170C08BF
:1051F000E4180C087C150C0858180C0810B500F5BC
:10520000C45400F505501C30FDF7E4FB083401469A
:1052100020465DF06FFD2046BDE810405DF00CBDFE
:10522000FFF7ECBF30B5044600F53A5087B0303098
:1052300004F58C55FCF77EF91035204604F050FC3F
:105240000021284608F08EF804F5615114312846F3
:1052500007F0AEFD43F63413E05495F8341111F025
:10526000010102D1204600F0A7FA002303A9284635
:1052700003930493059307F065FE18B39DED040AAC
:10528000DDED037A20EE000AA7EEA70AA1F0F2FAFC
:1052900004F5645383ED0F0A0121204604F020FD3C
:1052A00028B12046FEF782FD2046FEF751FE802100
:1052B000204604F015FD18B104F537503FF04AFCC4
:1052C00007B030BD94F8062494F8503332B18422EC
:1052D00002FB034292F8B521012ADDDC842202FBA5
:1052E000034393F8B531022BD6DD284607F0E8FDDD
:1052F00001A88DED010ACDED020A1EF08BF8C7E77B
:10530000FFF790BF70B541F678030546C356A3B1C9
:1053100043F2E473C45874B16DF092FE041BB4F50B
:10532000FA6F94BF002301232846044A0221BDE8F6
:10533000704000F0D9BD2346F6E770BDAF050C08FC
:10534000FFF7E0BF10B50221044604F0C9FC20B10C
:105350000121204604F0C4FCC0B11021204604F015
:10536000BFFC48B12046FEF7B1FE04F502511C31E6
:1053700004F537503FF042FF2021204604F0B0FCF6
:1053800058B12046BDE81040FEF79ABD2046FEF712
:105390000DFD2046FEF7DCFDDFE710BDFFF7D2BFB5
:1053A00010B54FF40051044604F09AFC10B12046A9
:1053B000FEF774FF4FF48041204604F091FC38B1B1
:1053C0002046FEF7CFFE04F50750183061F0DCFEF2
:1053D0008021204604F084FC28B104F53750BDE854
:1053E00010403FF0D7BB10BDFFF7DABF70B50446E1
:1053F00000F58C502DED028B103006F0CFFB2368AA
:10540000274D5B6D04F53A562046303698474CF0F0
:10541000B1FE00213046FCF7A7F90123A871304600
:10542000EB7163F093FC1F4B28711A6841F652012F
:10543000D26C605A92F89C201B496A7108701D4614
:1054400012B9204600F0DEF92B68DB6C93F89C5013
:1054500045B141F63D03E35C23B96DF0F1FD04F580
:10546000C253186041F63D0304F50550E55404F5B8
:10547000C35393ED018A04F51D53D3ED028A1C300A
:10548000FCF710FBF0EE680AB0EE480ABDEC028BA8
:10549000014604F52D501C30BDE8704065F0BEBAE1
:1054A000F16700206824002041220020FFF79EBF02
:1054B00010B5084B1B78044623B100F50F50383067
:1054C00063F00EFC43F61813E0580368BDE8104083
:1054D0009B68184770710020FFF7EABF43F6181267
:1054E00000F57F5382582C339A4210D100F58C532B
:1054F000103393F83431DB0709D544F23403C35A2F
:10550000012B04D900F58040243020F085BD704780
:10551000FFF7E4BF38B5054B1C6823680A461D68D1
:10552000034B01462046A847002038BD68240020D0
:105530007024002010B56DF063FF064C064B186018
:105540002046FFF7EFFC2046044A0549BDE810401D
:10555000A0F0F6B97024002068240020EC7C002024
:10556000B94B010813B543F691630446C35C1BB104
:1055700003F0E2FA02B010BD00F50F5001A9383077
:1055800063F04CF908B90023019304F53A50303028
:1055900063F0DCFB014604F50550D4ED400A9DEDB7
:1055A000010A1C30FDF7CCF9E4E70000F8B52DED59
:1055B000048B9FED3C7AD1ED007A9FED3B8A00F59C
:1055C000235367EEC77A93ED0D7A00F52D5367EEFE
:1055D000877AD3ED058A9FED357A00F5075568EE99
:1055E000878A183504460F4628460021E7EE878A49
:1055F00061F02CFDC0B9DFED2E0A94ED401A42F2A5
:105600005C1304F50F50E15CB0EE680AC1F3C00210
:105610003830C1F3800163F029F820EE080A87EDE5
:10562000000ABDEC048BF8BD0121284661F00EFD97
:105630000028E0D004F509562436D6ED007AF5EEC0
:10564000C07AF1EE10FAD6DD9FED1A7AF4EEC77A41
:10565000F1EE10FACFDB0021284661F043FD012175
:105660002846B0EE409A61F03DFDD6ED007A9FED00
:10567000107ADFED110AF5EEC07AF1EE10FAD8BF1C
:10568000F0EE477A77EEA77A39EE009A0E2089EE8F
:10569000270AB0EE481A20EE080A1BF09DFCF0EE37
:1056A000400AAAE70AD7233C0000C84235FA8E3CDC
:1056B00000000000000000340000C8C242F60803E9
:1056C000C056C31E58425841704700002DE9F047AC
:1056D0002DED028B00F58C5510358CB00446284614
:1056E00095F834718846924604F082FD07F0010770
:1056F0008146002854D004F580462436A7B94FF4DB
:105700008071204604F0ECFA70B108A80BF03AFE64
:1057100006AA394630461EF07BFF28B106AA31465C
:1057200004F5375040F086FBBAF1000F05D095F82C
:10573000343143F0020385F8343130461FF0BCF8B1
:10574000D8ED017A9FED197A9FED198AF8EEE77A84
:1057500004F5585467EE877A3C3417EE900AFAF74E
:10576000F9FED8ED037AF8EEE77ACDE9040167EEA9
:10577000887A17EE900AFAF7EDFED8ED027AF8EE85
:10578000E77ACDE9020167EE887A17EE900AFAF718
:10579000E1FE084ACDE900010621204643F058FA0F
:1057A00048460CB0BDEC028BBDE8F0870AD7233C1D
:1057B00095BFD633D4110C087FB5054605F58C543A
:1057C000684610340E460BF0DDFD204607F0B2FBB4
:1057D00018B90024204604B070BD6946204607F081
:1057E000E7FA0028F5D0324669462846FFF76EFFF3
:1057F00004460028EDD005F51D500121103067F05A
:10580000BFFAE7E730B500F58C54103494F8343122
:105810009A0785B005461FD468460BF0B3FD69466C
:10582000204607F0C5FAB8B105F5816008F04AFFD7
:1058300094F83431DB070BD504F5927168460BF010
:10584000B7FFF6EE007AB4EEE70AF1EE10FA03D4F1
:105850006946204604F0CCFC05B030BDF0B52DED16
:10586000028B00F53A56303683B00446304663F07A
:105870006DFA054690B141F67903E35673B143F6EC
:105880001813E0580368DB689847002840F08F80C1
:105890002046FFF713FF002840F08980484B002284
:1058A0001A8080E007EE903A9FED467AF8EEE77AAC
:1058B00004F58C5367EE877A93ED067AB0EEC77ADB
:1058C000B4EEE77AF1EE10FA0CDC04F58C5393EDAC
:1058D000057AB0EEC77AB4EEE77AF1EE10FACCBFF3
:1058E000012500252046FFF7E9FEA0BB65BB04F5B6
:1058F0008C571037384607F0E3FA68468DED000AFA
:10590000CDED010A1DF086FD9FED2F8AB4EEC80A89
:10591000F1EE10FAC2DA384607F00AFAD0ED027A50
:10592000F0EEE77AF4EEC87AF1EE10FAB6DA04F5A2
:105930000653D3ED007AB1EE047AF0EEE77AF4EE96
:10594000C77AF1EE10FAA9D41D4A138801339BB22D
:10595000132B138000D835B340F08EFE0C210122AA
:1059600040F008FE2046FFF7A9FE014604F5585016
:105970003C3049B1154A002143F06AF901220C215B
:105980003046FBF76DFF0EE0114A43F061F904F574
:105990007B5113220C31204604F022F941F67903A1
:1059A000E356022BEAD003B0BDEC028BF0BD42F609
:1059B000F803E356002B7FF475AF1D4692E700BF56
:1059C0005067002035FA8E3C0AD7A33DF4110C082D
:1059D00005120C082DE9F04788B0054640F04CFE52
:1059E00082466DF035FB44F2D0230646EC5805F5AF
:1059F0008540003400F1300018BF01240F4642F00A
:105A00008DFC0068FAF7A6FD804605F5854040301C
:105A1000894642F083FC0068FAF79CFDCDE90489D1
:105A2000CDE906010294CDE90067044B044A05491B
:105A3000504640F095FB08B0BDE8F0878C120C088A
:105A400091120C08AD120C0837B5044600F53A5017
:105A5000303063F07BF904F558553C3548B304F514
:105A60000F5001A9383062F0D9FE10B304F585401B
:105A70009DED010A303042F053FC04F5065304F565
:105A8000854093ED000A403042F04AFC6DF0D8FAB0
:105A900044F2D0230022E05044F2D4232046E250C6
:105AA000FFF798FF064A0221284643F0D1F803B0D9
:105AB00030BD44F2D0230022E250024AF3E700BF97
:105AC0001C120C0834120C08F0B52DED048B44F2B6
:105AD000D02385B0C3580446002B74D000F5854010
